{
  "_format": "hh-sol-artifact-1",
  "contractName": "Rsp",
  "sourceName": "contracts/Rsp.sol",
  "abi": [
    {
      "inputs": [],
      "stateMutability": "nonpayable",
      "type": "constructor"
    },
    {
      "anonymous": false,
      "inputs": [
        {
          "indexed": true,
          "internalType": "address",
          "name": "owner",
          "type": "address"
        },
        {
          "indexed": true,
          "internalType": "address",
          "name": "spender",
          "type": "address"
        },
        {
          "indexed": false,
          "internalType": "uint256",
          "name": "value",
          "type": "uint256"
        }
      ],
      "name": "Approval",
      "type": "event"
    },
    {
      "anonymous": false,
      "inputs": [
        {
          "indexed": false,
          "internalType": "enum Base.Results",
          "name": "result",
          "type": "uint8"
        },
        {
          "indexed": false,
          "internalType": "uint256",
          "name": "earnToken",
          "type": "uint256"
        },
        {
          "indexed": false,
          "internalType": "uint256",
          "name": "totalToken",
          "type": "uint256"
        },
        {
          "indexed": false,
          "internalType": "enum Base.Hands",
          "name": "playerHand",
          "type": "uint8"
        },
        {
          "indexed": false,
          "internalType": "enum Base.Hands",
          "name": "cpuHand",
          "type": "uint8"
        },
        {
          "components": [
            {
              "internalType": "uint8",
              "name": "winCount",
              "type": "uint8"
            },
            {
              "internalType": "uint8",
              "name": "loseCount",
              "type": "uint8"
            },
            {
              "internalType": "uint8",
              "name": "drawCount",
              "type": "uint8"
            }
          ],
          "indexed": false,
          "internalType": "struct Base.Score",
          "name": "score",
          "type": "tuple"
        }
      ],
      "name": "ResultNotification",
      "type": "event"
    },
    {
      "anonymous": false,
      "inputs": [
        {
          "indexed": false,
          "internalType": "uint256",
          "name": "token",
          "type": "uint256"
        }
      ],
      "name": "TokenNotification",
      "type": "event"
    },
    {
      "anonymous": false,
      "inputs": [
        {
          "indexed": true,
          "internalType": "address",
          "name": "from",
          "type": "address"
        },
        {
          "indexed": true,
          "internalType": "address",
          "name": "to",
          "type": "address"
        },
        {
          "indexed": false,
          "internalType": "uint256",
          "name": "value",
          "type": "uint256"
        }
      ],
      "name": "Transfer",
      "type": "event"
    },
    {
      "inputs": [
        {
          "internalType": "address",
          "name": "owner",
          "type": "address"
        },
        {
          "internalType": "address",
          "name": "spender",
          "type": "address"
        }
      ],
      "name": "allowance",
      "outputs": [
        {
          "internalType": "uint256",
          "name": "",
          "type": "uint256"
        }
      ],
      "stateMutability": "view",
      "type": "function"
    },
    {
      "inputs": [
        {
          "internalType": "address",
          "name": "spender",
          "type": "address"
        },
        {
          "internalType": "uint256",
          "name": "amount",
          "type": "uint256"
        }
      ],
      "name": "approve",
      "outputs": [
        {
          "internalType": "bool",
          "name": "",
          "type": "bool"
        }
      ],
      "stateMutability": "nonpayable",
      "type": "function"
    },
    {
      "inputs": [
        {
          "internalType": "address",
          "name": "account",
          "type": "address"
        }
      ],
      "name": "balanceOf",
      "outputs": [
        {
          "internalType": "uint256",
          "name": "",
          "type": "uint256"
        }
      ],
      "stateMutability": "view",
      "type": "function"
    },
    {
      "inputs": [],
      "name": "decimals",
      "outputs": [
        {
          "internalType": "uint8",
          "name": "",
          "type": "uint8"
        }
      ],
      "stateMutability": "view",
      "type": "function"
    },
    {
      "inputs": [
        {
          "internalType": "address",
          "name": "spender",
          "type": "address"
        },
        {
          "internalType": "uint256",
          "name": "subtractedValue",
          "type": "uint256"
        }
      ],
      "name": "decreaseAllowance",
      "outputs": [
        {
          "internalType": "bool",
          "name": "",
          "type": "bool"
        }
      ],
      "stateMutability": "nonpayable",
      "type": "function"
    },
    {
      "inputs": [
        {
          "internalType": "enum Base.Hands",
          "name": "playerHand",
          "type": "uint8"
        },
        {
          "internalType": "uint256",
          "name": "token",
          "type": "uint256"
        }
      ],
      "name": "doGame",
      "outputs": [],
      "stateMutability": "nonpayable",
      "type": "function"
    },
    {
      "inputs": [],
      "name": "getToken",
      "outputs": [],
      "stateMutability": "nonpayable",
      "type": "function"
    },
    {
      "inputs": [
        {
          "internalType": "address",
          "name": "spender",
          "type": "address"
        },
        {
          "internalType": "uint256",
          "name": "addedValue",
          "type": "uint256"
        }
      ],
      "name": "increaseAllowance",
      "outputs": [
        {
          "internalType": "bool",
          "name": "",
          "type": "bool"
        }
      ],
      "stateMutability": "nonpayable",
      "type": "function"
    },
    {
      "inputs": [],
      "name": "name",
      "outputs": [
        {
          "internalType": "string",
          "name": "",
          "type": "string"
        }
      ],
      "stateMutability": "view",
      "type": "function"
    },
    {
      "inputs": [
        {
          "internalType": "address",
          "name": "",
          "type": "address"
        }
      ],
      "name": "scoreOfOwner",
      "outputs": [
        {
          "internalType": "uint8",
          "name": "winCount",
          "type": "uint8"
        },
        {
          "internalType": "uint8",
          "name": "loseCount",
          "type": "uint8"
        },
        {
          "internalType": "uint8",
          "name": "drawCount",
          "type": "uint8"
        }
      ],
      "stateMutability": "view",
      "type": "function"
    },
    {
      "inputs": [],
      "name": "symbol",
      "outputs": [
        {
          "internalType": "string",
          "name": "",
          "type": "string"
        }
      ],
      "stateMutability": "view",
      "type": "function"
    },
    {
      "inputs": [],
      "name": "totalSupply",
      "outputs": [
        {
          "internalType": "uint256",
          "name": "",
          "type": "uint256"
        }
      ],
      "stateMutability": "view",
      "type": "function"
    },
    {
      "inputs": [
        {
          "internalType": "address",
          "name": "to",
          "type": "address"
        },
        {
          "internalType": "uint256",
          "name": "amount",
          "type": "uint256"
        }
      ],
      "name": "transfer",
      "outputs": [
        {
          "internalType": "bool",
          "name": "",
          "type": "bool"
        }
      ],
      "stateMutability": "nonpayable",
      "type": "function"
    },
    {
      "inputs": [
        {
          "internalType": "address",
          "name": "from",
          "type": "address"
        },
        {
          "internalType": "address",
          "name": "to",
          "type": "address"
        },
        {
          "internalType": "uint256",
          "name": "amount",
          "type": "uint256"
        }
      ],
      "name": "transferFrom",
      "outputs": [
        {
          "internalType": "bool",
          "name": "",
          "type": "bool"
        }
      ],
      "stateMutability": "nonpayable",
      "type": "function"
    }
  ],
  "bytecode": "0x60806040523480156200001157600080fd5b506040518060400160405280600681526020017f4a616e6b656e00000000000000000000000000000000000000000000000000008152506040518060400160405280600381526020017f5253500000000000000000000000000000000000000000000000000000000000815250816003908051906020019062000096929190620000b8565b508060049080519060200190620000af929190620000b8565b505050620001cd565b828054620000c69062000168565b90600052602060002090601f016020900481019282620000ea576000855562000136565b82601f106200010557805160ff191683800117855562000136565b8280016001018555821562000136579182015b828111156200013557825182559160200191906001019062000118565b5b50905062000145919062000149565b5090565b5b80821115620001645760008160009055506001016200014a565b5090565b600060028204905060018216806200018157607f821691505b602082108114156200019857620001976200019e565b5b50919050565b7f4e487b7100000000000000000000000000000000000000000000000000000000600052602260045260246000fd5b61270980620001dd6000396000f3fe608060405234801561001057600080fd5b50600436106100ea5760003560e01c80636f8b50591161008c57806395d89b411161006657806395d89b4114610261578063a457c2d71461027f578063a9059cbb146102af578063dd62ed3e146102df576100ea565b80636f8b5059146101e357806370a082311461021557806370c8bd0614610245576100ea565b806321df0da7116100c857806321df0da71461015b57806323b872dd14610165578063313ce5671461019557806339509351146101b3576100ea565b806306fdde03146100ef578063095ea7b31461010d57806318160ddd1461013d575b600080fd5b6100f761030f565b6040516101049190611d86565b60405180910390f35b610127600480360381019061012291906119de565b6103a1565b6040516101349190611d09565b60405180910390f35b6101456103c4565b6040516101529190611f72565b60405180910390f35b6101636103ce565b005b61017f600480360381019061017a919061198f565b610422565b60405161018c9190611d09565b60405180910390f35b61019d610451565b6040516101aa9190611f8d565b60405180910390f35b6101cd60048036038101906101c891906119de565b61045a565b6040516101da9190611d09565b60405180910390f35b6101fd60048036038101906101f8919061192a565b610504565b60405161020c93929190611fa8565b60405180910390f35b61022f600480360381019061022a919061192a565b610555565b60405161023c9190611f72565b60405180910390f35b61025f600480360381019061025a9190611a1a565b61059d565b005b610269610add565b6040516102769190611d86565b60405180910390f35b610299600480360381019061029491906119de565b610b6f565b6040516102a69190611d09565b60405180910390f35b6102c960048036038101906102c491906119de565b610c59565b6040516102d69190611d09565b60405180910390f35b6102f960048036038101906102f49190611953565b610c7c565b6040516103069190611f72565b60405180910390f35b60606003805461031e9061218a565b80601f016020809104026020016040519081016040528092919081815260200182805461034a9061218a565b80156103975780601f1061036c57610100808354040283529160200191610397565b820191906000526020600020905b81548152906001019060200180831161037a57829003601f168201915b5050505050905090565b6000806103ac610d03565b90506103b9818585610d0b565b600191505092915050565b6000600254905090565b6103e13368056bc75e2d63100000610ed6565b7fb4c5c1f3194b6414dce1589866ddb1353bb591165773f97d770155215f5fe61b61040b33610555565b6040516104189190611f72565b60405180910390a1565b60008061042d610d03565b905061043a858285611036565b6104458585856110c2565b60019150509392505050565b60006012905090565b600080610465610d03565b90506104f9818585600160008673ffffffffffffffffffffffffffffffffffffffff1673ffffffffffffffffffffffffffffffffffffffff16815260200190815260200160002060008973ffffffffffffffffffffffffffffffffffffffff1673ffffffffffffffffffffffffffffffffffffffff168152602001908152602001600020546104f49190611ffb565b610d0b565b600191505092915050565b60056020528060005260406000206000915090508060000160009054906101000a900460ff16908060000160019054906101000a900460ff16908060000160029054906101000a900460ff16905083565b60008060008373ffffffffffffffffffffffffffffffffffffffff1673ffffffffffffffffffffffffffffffffffffffff168152602001908152602001600020549050919050565b6105e56040518060400160405280601781526020017f6265743a20272564202f2077616c6c65743a2027256427000000000000000000815250826105e033610555565b611343565b60008111610628576040517f08c379a000000000000000000000000000000000000000000000000000000000815260040161061f90611e72565b60405180910390fd5b61063133610555565b811115610673576040517f08c379a000000000000000000000000000000000000000000000000000000000815260040161066a90611f12565b60405180910390fd5b600061067d6113e2565b9050600061068b848361142b565b905060008060028111156106c8577f4e487b7100000000000000000000000000000000000000000000000000000000600052602160045260246000fd5b826002811115610701577f4e487b7100000000000000000000000000000000000000000000000000000000600052602160045260246000fd5b141561078f57610710846117b1565b9050600560003373ffffffffffffffffffffffffffffffffffffffff1673ffffffffffffffffffffffffffffffffffffffff168152602001908152602001600020600001600081819054906101000a900460ff16809291906107719061220a565b91906101000a81548160ff021916908360ff16021790555050610983565b600160028111156107c9577f4e487b7100000000000000000000000000000000000000000000000000000000600052602160045260246000fd5b826002811115610802577f4e487b7100000000000000000000000000000000000000000000000000000000600052602160045260246000fd5b1415610890576108123085610c59565b50600560003373ffffffffffffffffffffffffffffffffffffffff1673ffffffffffffffffffffffffffffffffffffffff168152602001908152602001600020600001600181819054906101000a900460ff16809291906108729061220a565b91906101000a81548160ff021916908360ff16021790555050610982565b6002808111156108c9577f4e487b7100000000000000000000000000000000000000000000000000000000600052602160045260246000fd5b826002811115610902577f4e487b7100000000000000000000000000000000000000000000000000000000600052602160045260246000fd5b141561098157600560003373ffffffffffffffffffffffffffffffffffffffff1673ffffffffffffffffffffffffffffffffffffffff168152602001908152602001600020600001600281819054906101000a900460ff16809291906109679061220a565b91906101000a81548160ff021916908360ff160217905550505b5b5b610a4f60405180606001604052806035815260200161269f603591398660028111156109d8577f4e487b7100000000000000000000000000000000000000000000000000000000600052602160045260246000fd5b856002811115610a11577f4e487b7100000000000000000000000000000000000000000000000000000000600052602160045260246000fd5b856002811115610a4a577f4e487b7100000000000000000000000000000000000000000000000000000000600052602160045260246000fd5b6117d4565b7fb9915af4d0e6c078b3fcce1dfac86ac13889b6f8ddca6ca3ac315c44a140cb798282610a7b33610555565b8887600560003373ffffffffffffffffffffffffffffffffffffffff1673ffffffffffffffffffffffffffffffffffffffff168152602001908152602001600020604051610ace96959493929190611d24565b60405180910390a15050505050565b606060048054610aec9061218a565b80601f0160208091040260200160405190810160405280929190818152602001828054610b189061218a565b8015610b655780601f10610b3a57610100808354040283529160200191610b65565b820191906000526020600020905b815481529060010190602001808311610b4857829003601f168201915b5050505050905090565b600080610b7a610d03565b90506000600160008373ffffffffffffffffffffffffffffffffffffffff1673ffffffffffffffffffffffffffffffffffffffff16815260200190815260200160002060008673ffffffffffffffffffffffffffffffffffffffff1673ffffffffffffffffffffffffffffffffffffffff16815260200190815260200160002054905083811015610c40576040517f08c379a0000000000000000000000000000000000000000000000000000000008152600401610c3790611f32565b60405180910390fd5b610c4d8286868403610d0b565b60019250505092915050565b600080610c64610d03565b9050610c718185856110c2565b600191505092915050565b6000600160008473ffffffffffffffffffffffffffffffffffffffff1673ffffffffffffffffffffffffffffffffffffffff16815260200190815260200160002060008373ffffffffffffffffffffffffffffffffffffffff1673ffffffffffffffffffffffffffffffffffffffff16815260200190815260200160002054905092915050565b600033905090565b600073ffffffffffffffffffffffffffffffffffffffff168373ffffffffffffffffffffffffffffffffffffffff161415610d7b576040517f08c379a0000000000000000000000000000000000000000000000000000000008152600401610d7290611ef2565b60405180910390fd5b600073ffffffffffffffffffffffffffffffffffffffff168273ffffffffffffffffffffffffffffffffffffffff161415610deb576040517f08c379a0000000000000000000000000000000000000000000000000000000008152600401610de290611e52565b60405180910390fd5b80600160008573ffffffffffffffffffffffffffffffffffffffff1673ffffffffffffffffffffffffffffffffffffffff16815260200190815260200160002060008473ffffffffffffffffffffffffffffffffffffffff1673ffffffffffffffffffffffffffffffffffffffff168152602001908152602001600020819055508173ffffffffffffffffffffffffffffffffffffffff168373ffffffffffffffffffffffffffffffffffffffff167f8c5be1e5ebec7d5bd14f71427d1e84f3dd0314c0f7b2291e5b200ac8c7c3b92583604051610ec99190611f72565b60405180910390a3505050565b600073ffffffffffffffffffffffffffffffffffffffff168273ffffffffffffffffffffffffffffffffffffffff161415610f46576040517f08c379a0000000000000000000000000000000000000000000000000000000008152600401610f3d90611f52565b60405180910390fd5b610f5260008383611876565b8060026000828254610f649190611ffb565b92505081905550806000808473ffffffffffffffffffffffffffffffffffffffff1673ffffffffffffffffffffffffffffffffffffffff1681526020019081526020016000206000828254610fb99190611ffb565b925050819055508173ffffffffffffffffffffffffffffffffffffffff16600073ffffffffffffffffffffffffffffffffffffffff167fddf252ad1be2c89b69c2b068fc378daa952ba7f163c4a11628f55a4df523b3ef8360405161101e9190611f72565b60405180910390a36110326000838361187b565b5050565b60006110428484610c7c565b90507fffffffffffffffffffffffffffffffffffffffffffffffffffffffffffffffff81146110bc57818110156110ae576040517f08c379a00000000000000000000000000000000000000000000000000000000081526004016110a590611e92565b60405180910390fd5b6110bb8484848403610d0b565b5b50505050565b600073ffffffffffffffffffffffffffffffffffffffff168373ffffffffffffffffffffffffffffffffffffffff161415611132576040517f08c379a000000000000000000000000000000000000000000000000000000000815260040161112990611ed2565b60405180910390fd5b600073ffffffffffffffffffffffffffffffffffffffff168273ffffffffffffffffffffffffffffffffffffffff1614156111a2576040517f08c379a000000000000000000000000000000000000000000000000000000000815260040161119990611e32565b60405180910390fd5b6111ad838383611876565b60008060008573ffffffffffffffffffffffffffffffffffffffff1673ffffffffffffffffffffffffffffffffffffffff16815260200190815260200160002054905081811015611233576040517f08c379a000000000000000000000000000000000000000000000000000000000815260040161122a90611eb2565b60405180910390fd5b8181036000808673ffffffffffffffffffffffffffffffffffffffff1673ffffffffffffffffffffffffffffffffffffffff16815260200190815260200160002081905550816000808573ffffffffffffffffffffffffffffffffffffffff1673ffffffffffffffffffffffffffffffffffffffff16815260200190815260200160002060008282546112c69190611ffb565b925050819055508273ffffffffffffffffffffffffffffffffffffffff168473ffffffffffffffffffffffffffffffffffffffff167fddf252ad1be2c89b69c2b068fc378daa952ba7f163c4a11628f55a4df523b3ef8460405161132a9190611f72565b60405180910390a361133d84848461187b565b50505050565b6113dd83838360405160240161135b93929190611da8565b6040516020818303038152906040527f969cdd03000000000000000000000000000000000000000000000000000000007bffffffffffffffffffffffffffffffffffffffffffffffffffffffff19166020820180517bffffffffffffffffffffffffffffffffffffffffffffffffffffffff8381831617835250505050611880565b505050565b60006113ee60036118a9565b6002811115611426577f4e487b7100000000000000000000000000000000000000000000000000000000600052602160045260246000fd5b905090565b6000816002811115611466577f4e487b7100000000000000000000000000000000000000000000000000000000600052602160045260246000fd5b83600281111561149f577f4e487b7100000000000000000000000000000000000000000000000000000000600052602160045260246000fd5b14156114ae57600290506117ab565b600060028111156114e8577f4e487b7100000000000000000000000000000000000000000000000000000000600052602160045260246000fd5b836002811115611521577f4e487b7100000000000000000000000000000000000000000000000000000000600052602160045260246000fd5b14801561159d5750600280811115611562577f4e487b7100000000000000000000000000000000000000000000000000000000600052602160045260246000fd5b82600281111561159b577f4e487b7100000000000000000000000000000000000000000000000000000000600052602160045260246000fd5b145b156115ab57600090506117ab565b600160028111156115e5577f4e487b7100000000000000000000000000000000000000000000000000000000600052602160045260246000fd5b83600281111561161e577f4e487b7100000000000000000000000000000000000000000000000000000000600052602160045260246000fd5b14801561169b575060006002811115611660577f4e487b7100000000000000000000000000000000000000000000000000000000600052602160045260246000fd5b826002811115611699577f4e487b7100000000000000000000000000000000000000000000000000000000600052602160045260246000fd5b145b156116a957600090506117ab565b6002808111156116e2577f4e487b7100000000000000000000000000000000000000000000000000000000600052602160045260246000fd5b83600281111561171b577f4e487b7100000000000000000000000000000000000000000000000000000000600052602160045260246000fd5b14801561179857506001600281111561175d577f4e487b7100000000000000000000000000000000000000000000000000000000600052602160045260246000fd5b826002811115611796577f4e487b7100000000000000000000000000000000000000000000000000000000600052602160045260246000fd5b145b156117a657600090506117ab565b600190505b92915050565b60006002826117c09190612051565b91506117cc3383610ed6565b819050919050565b611870848484846040516024016117ee9493929190611de6565b6040516020818303038152906040527f08ee5666000000000000000000000000000000000000000000000000000000007bffffffffffffffffffffffffffffffffffffffffffffffffffffffff19166020820180517bffffffffffffffffffffffffffffffffffffffffffffffffffffffff8381831617835250505050611880565b50505050565b505050565b505050565b60008151905060006a636f6e736f6c652e6c6f679050602083016000808483855afa5050505050565b6000814244336040516020016118c193929190611ccc565b6040516020818303038152906040528051906020012060001c6118e49190612262565b9050919050565b6000813590506118fa81612660565b92915050565b60008135905061190f81612677565b92915050565b60008135905061192481612687565b92915050565b60006020828403121561193c57600080fd5b600061194a848285016118eb565b91505092915050565b6000806040838503121561196657600080fd5b6000611974858286016118eb565b9250506020611985858286016118eb565b9150509250929050565b6000806000606084860312156119a457600080fd5b60006119b2868287016118eb565b93505060206119c3868287016118eb565b92505060406119d486828701611915565b9150509250925092565b600080604083850312156119f157600080fd5b60006119ff858286016118eb565b9250506020611a1085828601611915565b9150509250929050565b60008060408385031215611a2d57600080fd5b6000611a3b85828601611900565b9250506020611a4c85828601611915565b9150509250929050565b611a67611a62826120b8565b612234565b82525050565b611a76816120ca565b82525050565b611a8581612133565b82525050565b611a9481612145565b82525050565b6000611aa582611fdf565b611aaf8185611fea565b9350611abf818560208601612157565b611ac88161234f565b840191505092915050565b6000611ae0602383611fea565b9150611aeb82612394565b604082019050919050565b6000611b03602283611fea565b9150611b0e826123e3565b604082019050919050565b6000611b26602483611fea565b9150611b3182612432565b604082019050919050565b6000611b49601d83611fea565b9150611b5482612481565b602082019050919050565b6000611b6c602683611fea565b9150611b77826124aa565b604082019050919050565b6000611b8f602583611fea565b9150611b9a826124f9565b604082019050919050565b6000611bb2602483611fea565b9150611bbd82612548565b604082019050919050565b6000611bd5601783611fea565b9150611be082612597565b602082019050919050565b6000611bf8602583611fea565b9150611c03826125c0565b604082019050919050565b6000611c1b601f83611fea565b9150611c268261260f565b602082019050919050565b606082016000808301549050611c46816121bc565b611c536000860182611cae565b50611c5d816121d6565b611c6a6020860182611cae565b50611c74816121f0565b611c816040860182611cae565b5050505050565b611c918161211c565b82525050565b611ca8611ca38261211c565b612258565b82525050565b611cb781612126565b82525050565b611cc681612126565b82525050565b6000611cd88286611c97565b602082019150611ce88285611c97565b602082019150611cf88284611a56565b601482019150819050949350505050565b6000602082019050611d1e6000830184611a6d565b92915050565b600061010082019050611d3a6000830189611a8b565b611d476020830188611c88565b611d546040830187611c88565b611d616060830186611a7c565b611d6e6080830185611a7c565b611d7b60a0830184611c31565b979650505050505050565b60006020820190508181036000830152611da08184611a9a565b905092915050565b60006060820190508181036000830152611dc28186611a9a565b9050611dd16020830185611c88565b611dde6040830184611c88565b949350505050565b60006080820190508181036000830152611e008187611a9a565b9050611e0f6020830186611c88565b611e1c6040830185611c88565b611e296060830184611c88565b95945050505050565b60006020820190508181036000830152611e4b81611ad3565b9050919050565b60006020820190508181036000830152611e6b81611af6565b9050919050565b60006020820190508181036000830152611e8b81611b19565b9050919050565b60006020820190508181036000830152611eab81611b3c565b9050919050565b60006020820190508181036000830152611ecb81611b5f565b9050919050565b60006020820190508181036000830152611eeb81611b82565b9050919050565b60006020820190508181036000830152611f0b81611ba5565b9050919050565b60006020820190508181036000830152611f2b81611bc8565b9050919050565b60006020820190508181036000830152611f4b81611beb565b9050919050565b60006020820190508181036000830152611f6b81611c0e565b9050919050565b6000602082019050611f876000830184611c88565b92915050565b6000602082019050611fa26000830184611cbd565b92915050565b6000606082019050611fbd6000830186611cbd565b611fca6020830185611cbd565b611fd76040830184611cbd565b949350505050565b600081519050919050565b600082825260208201905092915050565b60006120068261211c565b91506120118361211c565b9250827fffffffffffffffffffffffffffffffffffffffffffffffffffffffffffffffff0382111561204657612045612293565b5b828201905092915050565b600061205c8261211c565b91506120678361211c565b9250817fffffffffffffffffffffffffffffffffffffffffffffffffffffffffffffffff04831182151516156120a05761209f612293565b5b828202905092915050565b600060ff82169050919050565b60006120c3826120fc565b9050919050565b60008115159050919050565b60008190506120e482612638565b919050565b60008190506120f78261264c565b919050565b600073ffffffffffffffffffffffffffffffffffffffff82169050919050565b6000819050919050565b600060ff82169050919050565b600061213e826120d6565b9050919050565b6000612150826120e9565b9050919050565b60005b8381101561217557808201518184015260208101905061215a565b83811115612184576000848401525b50505050565b600060028204905060018216806121a257607f821691505b602082108114156121b6576121b5612320565b5b50919050565b60006121cf6121ca8361236d565b6120ab565b9050919050565b60006121e96121e483612387565b6120ab565b9050919050565b60006122036121fe8361237a565b6120ab565b9050919050565b600061221582612126565b915060ff82141561222957612228612293565b5b600182019050919050565b600061223f82612246565b9050919050565b600061225182612360565b9050919050565b6000819050919050565b600061226d8261211c565b91506122788361211c565b925082612288576122876122c2565b5b828206905092915050565b7f4e487b7100000000000000000000000000000000000000000000000000000000600052601160045260246000fd5b7f4e487b7100000000000000000000000000000000000000000000000000000000600052601260045260246000fd5b7f4e487b7100000000000000000000000000000000000000000000000000000000600052602160045260246000fd5b7f4e487b7100000000000000000000000000000000000000000000000000000000600052602260045260246000fd5b6000601f19601f8301169050919050565b60008160601b9050919050565b60008160001c9050919050565b60008160101c9050919050565b60008160081c9050919050565b7f45524332303a207472616e7366657220746f20746865207a65726f206164647260008201527f6573730000000000000000000000000000000000000000000000000000000000602082015250565b7f45524332303a20617070726f766520746f20746865207a65726f20616464726560008201527f7373000000000000000000000000000000000000000000000000000000000000602082015250565b7f746f6b656e20697320756e64657220302c206d75737420626520736574206f7660008201527f6572203000000000000000000000000000000000000000000000000000000000602082015250565b7f45524332303a20696e73756666696369656e7420616c6c6f77616e6365000000600082015250565b7f45524332303a207472616e7366657220616d6f756e742065786365656473206260008201527f616c616e63650000000000000000000000000000000000000000000000000000602082015250565b7f45524332303a207472616e736665722066726f6d20746865207a65726f20616460008201527f6472657373000000000000000000000000000000000000000000000000000000602082015250565b7f45524332303a20617070726f76652066726f6d20746865207a65726f2061646460008201527f7265737300000000000000000000000000000000000000000000000000000000602082015250565b7f646f6e2774206861766520656e6f75676820746f6b656e000000000000000000600082015250565b7f45524332303a2064656372656173656420616c6c6f77616e63652062656c6f7760008201527f207a65726f000000000000000000000000000000000000000000000000000000602082015250565b7f45524332303a206d696e7420746f20746865207a65726f206164647265737300600082015250565b60038110612649576126486122f1565b5b50565b6003811061265d5761265c6122f1565b5b50565b612669816120b8565b811461267457600080fd5b50565b6003811061268457600080fd5b50565b6126908161211c565b811461269b57600080fd5b5056fe706c617965722068616e643a20272564202f20636f6d70757465722068616e643a2027256427202f20726573756c743a2027256427a2646970667358221220320a8c4ab1d6388ac22e909cb848ed7b9f34c6885b4406e062d1f62be27a869c64736f6c63430008040033",
  "linkReferences": {},
  "deployedLinkReferences": {}
}